{
  "_format": "hh-sol-artifact-1",
  "contractName": "SpaceExample",
  "sourceName": "contracts/SpaceExample.sol",
  "abi": [
    {
      "inputs": [
        {
          "internalType": "uint256",
          "name": "",
          "type": "uint256"
        }
      ],
      "name": "addresses",
      "outputs": [
        {
          "internalType": "address",
          "name": "",
          "type": "address"
        }
      ],
      "stateMutability": "view",
      "type": "function"
    },
    {
      "inputs": [
        {
          "internalType": "string",
          "name": "_handle",
          "type": "string"
        },
        {
          "internalType": "enum SpaceExample.Visibility",
          "name": "_visibility",
          "type": "uint8"
        }
      ],
      "name": "createSpace",
      "outputs": [],
      "stateMutability": "nonpayable",
      "type": "function"
    },
    {
      "inputs": [
        {
          "internalType": "uint256",
          "name": "_spaceId",
          "type": "uint256"
        }
      ],
      "name": "findSpaceById",
      "outputs": [
        {
          "internalType": "address",
          "name": "",
          "type": "address"
        },
        {
          "internalType": "string",
          "name": "",
          "type": "string"
        },
        {
          "internalType": "uint256",
          "name": "",
          "type": "uint256"
        },
        {
          "internalType": "uint256",
          "name": "",
          "type": "uint256"
        },
        {
          "internalType": "enum SpaceExample.Visibility",
          "name": "",
          "type": "uint8"
        },
        {
          "internalType": "uint256",
          "name": "",
          "type": "uint256"
        }
      ],
      "stateMutability": "view",
      "type": "function"
    },
    {
      "inputs": [
        {
          "internalType": "uint256",
          "name": "_spaceId",
          "type": "uint256"
        }
      ],
      "name": "getBlockNumber",
      "outputs": [
        {
          "internalType": "uint256",
          "name": "",
          "type": "uint256"
        }
      ],
      "stateMutability": "view",
      "type": "function"
    },
    {
      "inputs": [
        {
          "internalType": "uint256",
          "name": "_spaceId",
          "type": "uint256"
        }
      ],
      "name": "getFollowerCount",
      "outputs": [
        {
          "internalType": "uint256",
          "name": "",
          "type": "uint256"
        }
      ],
      "stateMutability": "view",
      "type": "function"
    },
    {
      "inputs": [
        {
          "internalType": "uint256",
          "name": "_spaceId",
          "type": "uint256"
        }
      ],
      "name": "getHandle",
      "outputs": [
        {
          "internalType": "string",
          "name": "",
          "type": "string"
        }
      ],
      "stateMutability": "view",
      "type": "function"
    },
    {
      "inputs": [
        {
          "internalType": "uint256",
          "name": "_spaceId",
          "type": "uint256"
        }
      ],
      "name": "getOwner",
      "outputs": [
        {
          "internalType": "address",
          "name": "",
          "type": "address"
        }
      ],
      "stateMutability": "view",
      "type": "function"
    },
    {
      "inputs": [
        {
          "internalType": "uint256",
          "name": "_spaceId",
          "type": "uint256"
        }
      ],
      "name": "getTimestamp",
      "outputs": [
        {
          "internalType": "uint256",
          "name": "",
          "type": "uint256"
        }
      ],
      "stateMutability": "view",
      "type": "function"
    },
    {
      "inputs": [
        {
          "internalType": "uint256",
          "name": "_spaceId",
          "type": "uint256"
        }
      ],
      "name": "getVisibility",
      "outputs": [
        {
          "internalType": "enum SpaceExample.Visibility",
          "name": "",
          "type": "uint8"
        }
      ],
      "stateMutability": "view",
      "type": "function"
    },
    {
      "inputs": [
        {
          "internalType": "uint256",
          "name": "",
          "type": "uint256"
        }
      ],
      "name": "spaces",
      "outputs": [
        {
          "internalType": "address",
          "name": "owner",
          "type": "address"
        },
        {
          "internalType": "string",
          "name": "handle",
          "type": "string"
        },
        {
          "internalType": "uint256",
          "name": "block_num",
          "type": "uint256"
        },
        {
          "internalType": "uint256",
          "name": "timestamp",
          "type": "uint256"
        },
        {
          "internalType": "enum SpaceExample.Visibility",
          "name": "visibility",
          "type": "uint8"
        },
        {
          "internalType": "uint256",
          "name": "followers_count",
          "type": "uint256"
        }
      ],
      "stateMutability": "view",
      "type": "function"
    }
  ],
  "bytecode": "0x6080604052600060025534801561001557600080fd5b50610c27806100256000396000f3fe608060405234801561001057600080fd5b506004361061009e5760003560e01c8063b633620c11610066578063b633620c146103c5578063c41a360a14610407578063ec81d1941461045f578063edf26d9b14610506578063fbc205db1461055e5761009e565b8063239eaf8a146100a357806327785e411461016b57806350c0fbe4146102565780637467124f146102985780637586353b146102da575b600080fd5b610169600480360360408110156100b957600080fd5b81019080803590602001906401000000008111156100d657600080fd5b8201836020820111156100e857600080fd5b8035906020019184600183028401116401000000008311171561010a57600080fd5b91908080601f016020809104026020016040519081016040528093929190818152602001838380828437600081840152601f19601f820116905080830192505050505050509192919290803560ff1690602001909291905050506105ab565b005b6101976004803603602081101561018157600080fd5b810190808035906020019092919050505061072d565b604051808773ffffffffffffffffffffffffffffffffffffffff168152602001806020018681526020018581526020018460038111156101d357fe5b8152602001838152602001828103825287818151815260200191508051906020019080838360005b838110156102165780820151818401526020810190506101fb565b50505050905090810190601f1680156102435780820380516001836020036101000a031916815260200191505b5097505050505050505060405180910390f35b6102826004803603602081101561026c57600080fd5b8101908080359060200190929190505050610898565b6040518082815260200191505060405180910390f35b6102c4600480360360208110156102ae57600080fd5b81019080803590602001909291905050506108b7565b6040518082815260200191505060405180910390f35b610306600480360360208110156102f057600080fd5b81019080803590602001909291905050506108d6565b604051808773ffffffffffffffffffffffffffffffffffffffff1681526020018060200186815260200185815260200184600381111561034257fe5b8152602001838152602001828103825287818151815260200191508051906020019080838360005b8381101561038557808201518184015260208101905061036a565b50505050905090810190601f1680156103b25780820380516001836020036101000a031916815260200191505b5097505050505050505060405180910390f35b6103f1600480360360208110156103db57600080fd5b81019080803590602001909291905050506109d7565b6040518082815260200191505060405180910390f35b6104336004803603602081101561041d57600080fd5b81019080803590602001909291905050506109f6565b604051808273ffffffffffffffffffffffffffffffffffffffff16815260200191505060405180910390f35b61048b6004803603602081101561047557600080fd5b8101908080359060200190929190505050610a35565b6040518080602001828103825283818151815260200191508051906020019080838360005b838110156104cb5780820151818401526020810190506104b0565b50505050905090810190601f1680156104f85780820380516001836020036101000a031916815260200191505b509250505060405180910390f35b6105326004803603602081101561051c57600080fd5b8101908080359060200190929190505050610aec565b604051808273ffffffffffffffffffffffffffffffffffffffff16815260200191505060405180910390f35b61058a6004803603602081101561057457600080fd5b8101908080359060200190929190505050610b28565b6040518082600381111561059a57fe5b815260200191505060405180910390f35b60018054905060028190555033600080600254815260200190815260200160002060000160006101000a81548173ffffffffffffffffffffffffffffffffffffffff021916908373ffffffffffffffffffffffffffffffffffffffff1602179055508160008060025481526020019081526020016000206001019080519060200190610638929190610b54565b50436000806002548152602001908152602001600020600201819055504260008060025481526020019081526020016000206003018190555080600080600254815260200190815260200160002060040160006101000a81548160ff021916908360038111156106a457fe5b021790555060008060006002548152602001908152602001600020600501819055506001339080600181540180825580915050600190039060005260206000200160009091909190916101000a81548173ffffffffffffffffffffffffffffffffffffffff021916908373ffffffffffffffffffffffffffffffffffffffff1602179055505050565b6000606060008060008060008088815260200190815260200160002060000160009054906101000a900473ffffffffffffffffffffffffffffffffffffffff166000808981526020019081526020016000206001016000808a8152602001908152602001600020600201546000808b8152602001908152602001600020600301546000808c815260200190815260200160002060040160009054906101000a900460ff166000808d815260200190815260200160002060050154848054600181600116156101000203166002900480601f01602080910402602001604051908101604052809291908181526020018280546001816001161561010002031660029004801561087c5780601f106108515761010080835404028352916020019161087c565b820191906000526020600020905b81548152906001019060200180831161085f57829003601f168201915b5050505050945095509550955095509550955091939550919395565b6000806000838152602001908152602001600020600201549050919050565b6000806000838152602001908152602001600020600501549050919050565b60006020528060005260406000206000915090508060000160009054906101000a900473ffffffffffffffffffffffffffffffffffffffff1690806001018054600181600116156101000203166002900480601f0160208091040260200160405190810160405280929190818152602001828054600181600116156101000203166002900480156109a85780601f1061097d576101008083540402835291602001916109a8565b820191906000526020600020905b81548152906001019060200180831161098b57829003601f168201915b5050505050908060020154908060030154908060040160009054906101000a900460ff16908060050154905086565b6000806000838152602001908152602001600020600301549050919050565b600080600083815260200190815260200160002060000160009054906101000a900473ffffffffffffffffffffffffffffffffffffffff169050919050565b60606000808381526020019081526020016000206001018054600181600116156101000203166002900480601f016020809104026020016040519081016040528092919081815260200182805460018160011615610100020316600290048015610ae05780601f10610ab557610100808354040283529160200191610ae0565b820191906000526020600020905b815481529060010190602001808311610ac357829003601f168201915b50505050509050919050565b60018181548110610af957fe5b906000526020600020016000915054906101000a900473ffffffffffffffffffffffffffffffffffffffff1681565b600080600083815260200190815260200160002060040160009054906101000a900460ff169050919050565b828054600181600116156101000203166002900490600052602060002090601f016020900481019282601f10610b9557805160ff1916838001178555610bc3565b82800160010185558215610bc3579182015b82811115610bc2578251825591602001919060010190610ba7565b5b509050610bd09190610bd4565b5090565b5b80821115610bed576000816000905550600101610bd5565b509056fea26469706673582212203433c48d1f923413760c6274ebea92c6ec22fb439aa504e2d9ae58ccc254c16464736f6c63430007030033",
  "linkReferences": {},
  "deployedLinkReferences": {}
}