{
  "_format": "hh-sol-artifact-1",
  "contractName": "SpaceExample",
  "sourceName": "contracts/SpaceExample.sol",
  "abi": [
    {
      "inputs": [
        {
          "internalType": "uint256",
          "name": "",
          "type": "uint256"
        }
      ],
      "name": "array",
      "outputs": [
        {
          "internalType": "address",
          "name": "",
          "type": "address"
        }
      ],
      "stateMutability": "view",
      "type": "function"
    },
    {
      "inputs": [
        {
          "internalType": "string",
          "name": "_handle",
          "type": "string"
        },
        {
          "internalType": "enum SpaceExample.Visibility",
          "name": "_visibility",
          "type": "uint8"
        }
      ],
      "name": "createSpace",
      "outputs": [],
      "stateMutability": "nonpayable",
      "type": "function"
    },
    {
      "inputs": [
        {
          "internalType": "uint256",
          "name": "spaceId",
          "type": "uint256"
        }
      ],
      "name": "getOwner",
      "outputs": [
        {
          "internalType": "address",
          "name": "",
          "type": "address"
        }
      ],
      "stateMutability": "view",
      "type": "function"
    },
    {
      "inputs": [
        {
          "internalType": "uint256",
          "name": "",
          "type": "uint256"
        }
      ],
      "name": "spaces",
      "outputs": [
        {
          "internalType": "address",
          "name": "owner",
          "type": "address"
        },
        {
          "internalType": "string",
          "name": "handle",
          "type": "string"
        },
        {
          "internalType": "uint256",
          "name": "block_num",
          "type": "uint256"
        },
        {
          "internalType": "uint256",
          "name": "timestamp",
          "type": "uint256"
        },
        {
          "internalType": "enum SpaceExample.Visibility",
          "name": "visibility",
          "type": "uint8"
        },
        {
          "internalType": "uint256",
          "name": "followers_count",
          "type": "uint256"
        }
      ],
      "stateMutability": "view",
      "type": "function"
    }
  ],
  "bytecode": "0x6080604052600060025534801561001557600080fd5b50610685806100256000396000f3fe608060405234801561001057600080fd5b506004361061004c5760003560e01c8063239eaf8a1461005157806338d94193146101195780637586353b14610171578063c41a360a1461025c575b600080fd5b6101176004803603604081101561006757600080fd5b810190808035906020019064010000000081111561008457600080fd5b82018360208201111561009657600080fd5b803590602001918460018302840111640100000000831117156100b857600080fd5b91908080601f016020809104026020016040519081016040528093929190818152602001838380828437600081840152601f19601f820116905080830192505050505050509192919290803560ff1690602001909291905050506102b4565b005b6101456004803603602081101561012f57600080fd5b8101908080359060200190929190505050610436565b604051808273ffffffffffffffffffffffffffffffffffffffff16815260200191505060405180910390f35b61019d6004803603602081101561018757600080fd5b8101908080359060200190929190505050610472565b604051808773ffffffffffffffffffffffffffffffffffffffff168152602001806020018681526020018581526020018460038111156101d957fe5b8152602001838152602001828103825287818151815260200191508051906020019080838360005b8381101561021c578082015181840152602081019050610201565b50505050905090810190601f1680156102495780820380516001836020036101000a031916815260200191505b5097505050505050505060405180910390f35b6102886004803603602081101561027257600080fd5b8101908080359060200190929190505050610573565b604051808273ffffffffffffffffffffffffffffffffffffffff16815260200191505060405180910390f35b60018054905060028190555033600080600254815260200190815260200160002060000160006101000a81548173ffffffffffffffffffffffffffffffffffffffff021916908373ffffffffffffffffffffffffffffffffffffffff16021790555081600080600254815260200190815260200160002060010190805190602001906103419291906105b2565b50436000806002548152602001908152602001600020600301819055504260008060025481526020019081526020016000206004018190555080600080600254815260200190815260200160002060050160006101000a81548160ff021916908360038111156103ad57fe5b021790555060008060006002548152602001908152602001600020600601819055506001339080600181540180825580915050600190039060005260206000200160009091909190916101000a81548173ffffffffffffffffffffffffffffffffffffffff021916908373ffffffffffffffffffffffffffffffffffffffff1602179055505050565b6001818154811061044357fe5b906000526020600020016000915054906101000a900473ffffffffffffffffffffffffffffffffffffffff1681565b60006020528060005260406000206000915090508060000160009054906101000a900473ffffffffffffffffffffffffffffffffffffffff1690806001018054600181600116156101000203166002900480601f0160208091040260200160405190810160405280929190818152602001828054600181600116156101000203166002900480156105445780601f1061051957610100808354040283529160200191610544565b820191906000526020600020905b81548152906001019060200180831161052757829003601f168201915b5050505050908060030154908060040154908060050160009054906101000a900460ff16908060060154905086565b600080600083815260200190815260200160002060000160009054906101000a900473ffffffffffffffffffffffffffffffffffffffff169050919050565b828054600181600116156101000203166002900490600052602060002090601f016020900481019282601f106105f357805160ff1916838001178555610621565b82800160010185558215610621579182015b82811115610620578251825591602001919060010190610605565b5b50905061062e9190610632565b5090565b5b8082111561064b576000816000905550600101610633565b509056fea264697066735822122079168c54dd910efd08d730732140a02ed06d013ee4634890e75e14e6afb5b85864736f6c63430007030033",
  "linkReferences": {},
  "deployedLinkReferences": {}
}